{
  "contractName": "Gretel",
  "abi": [
    {
      "constant": false,
      "inputs": [],
      "name": "renounceOwnership",
      "outputs": [],
      "payable": false,
      "stateMutability": "nonpayable",
      "type": "function",
      "signature": "0x715018a6"
    },
    {
      "constant": true,
      "inputs": [],
      "name": "owner",
      "outputs": [
        {
          "name": "",
          "type": "address"
        }
      ],
      "payable": false,
      "stateMutability": "view",
      "type": "function",
      "signature": "0x8da5cb5b"
    },
    {
      "constant": true,
      "inputs": [],
      "name": "isOwner",
      "outputs": [
        {
          "name": "",
          "type": "bool"
        }
      ],
      "payable": false,
      "stateMutability": "view",
      "type": "function",
      "signature": "0x8f32d59b"
    },
    {
      "constant": false,
      "inputs": [
        {
          "name": "newOwner",
          "type": "address"
        }
      ],
      "name": "transferOwnership",
      "outputs": [],
      "payable": false,
      "stateMutability": "nonpayable",
      "type": "function",
      "signature": "0xf2fde38b"
    },
    {
      "inputs": [],
      "payable": false,
      "stateMutability": "nonpayable",
      "type": "constructor",
      "signature": "constructor"
    },
    {
      "anonymous": false,
      "inputs": [
        {
          "indexed": false,
          "name": "_name",
          "type": "string"
        },
        {
          "indexed": false,
          "name": "_amount",
          "type": "uint256"
        },
        {
          "indexed": false,
          "name": "_lat",
          "type": "string"
        },
        {
          "indexed": false,
          "name": "_lon",
          "type": "string"
        },
        {
          "indexed": true,
          "name": "_from",
          "type": "address"
        }
      ],
      "name": "newCargo",
      "type": "event",
      "signature": "0x0dc3d7d642a8f2f1d04656ce6ad01c944ed9a7ff2fdf3944142966136a086e0b"
    },
    {
      "anonymous": false,
      "inputs": [
        {
          "indexed": false,
          "name": "_name",
          "type": "string"
        },
        {
          "indexed": false,
          "name": "_tripId",
          "type": "uint256"
        },
        {
          "indexed": true,
          "name": "_from",
          "type": "address"
        }
      ],
      "name": "newTrip",
      "type": "event",
      "signature": "0xf17b49a5dea76ac40b9088fb9f4d7c8073259697bf89b38d066e1a86605ea8a3"
    },
    {
      "anonymous": false,
      "inputs": [
        {
          "indexed": false,
          "name": "_name",
          "type": "string"
        },
        {
          "indexed": true,
          "name": "_address",
          "type": "address"
        }
      ],
      "name": "newProducer",
      "type": "event",
      "signature": "0x36190ebd204efb27cc2e99e0c5fb90247d5bafc03993661869e759772f6bec65"
    },
    {
      "anonymous": false,
      "inputs": [
        {
          "indexed": false,
          "name": "_name",
          "type": "string"
        },
        {
          "indexed": true,
          "name": "_address",
          "type": "address"
        }
      ],
      "name": "newTransporter",
      "type": "event",
      "signature": "0x4ccfd9e1c981d644344aa59ee6303b42dc4aed4139bd6a8eb2f98e29945881f3"
    },
    {
      "anonymous": false,
      "inputs": [
        {
          "indexed": false,
          "name": "_name",
          "type": "string"
        },
        {
          "indexed": true,
          "name": "_address",
          "type": "address"
        }
      ],
      "name": "newDevice",
      "type": "event",
      "signature": "0x3c3bb545c42b454a4767ba58de13274f1075af683d882842741efa6d9d9fbf36"
    },
    {
      "anonymous": false,
      "inputs": [
        {
          "indexed": false,
          "name": "_name",
          "type": "string"
        },
        {
          "indexed": true,
          "name": "_address",
          "type": "address"
        }
      ],
      "name": "closeTrip",
      "type": "event",
      "signature": "0xb132d28c3ce81b24e2b13689c3313c3935a4c92cefebd1c9087f1dc3a2b62124"
    },
    {
      "anonymous": false,
      "inputs": [
        {
          "indexed": true,
          "name": "_transporter",
          "type": "address"
        },
        {
          "indexed": false,
          "name": "_device",
          "type": "address"
        }
      ],
      "name": "deviceAssignedToTransporter",
      "type": "event",
      "signature": "0x7a323ae7d8a6412b1de1192812695f455f92625368916e7ea4fb984c66db943d"
    },
    {
      "anonymous": false,
      "inputs": [
        {
          "indexed": false,
          "name": "_name",
          "type": "string"
        },
        {
          "indexed": false,
          "name": "_tripId",
          "type": "uint256"
        },
        {
          "indexed": true,
          "name": "_from",
          "type": "address"
        },
        {
          "indexed": false,
          "name": "_humidity",
          "type": "string"
        },
        {
          "indexed": false,
          "name": "_lat",
          "type": "string"
        },
        {
          "indexed": false,
          "name": "_lon",
          "type": "string"
        }
      ],
      "name": "newTripEventRecord",
      "type": "event",
      "signature": "0x484eb4ced3e714683266a7c5f8c4aabd034b835bbe8ab00ae8f3bd1a51666948"
    },
    {
      "anonymous": false,
      "inputs": [
        {
          "indexed": true,
          "name": "previousOwner",
          "type": "address"
        },
        {
          "indexed": true,
          "name": "newOwner",
          "type": "address"
        }
      ],
      "name": "OwnershipTransferred",
      "type": "event",
      "signature": "0x8be0079c531659141344cd1fd0a4f28419497f9722a3daafe3b4186f6b6457e0"
    },
    {
      "constant": false,
      "inputs": [
        {
          "name": "_devices",
          "type": "address[]"
        }
      ],
      "name": "addDevice",
      "outputs": [],
      "payable": false,
      "stateMutability": "nonpayable",
      "type": "function",
      "signature": "0x1b70f3f7"
    },
    {
      "constant": false,
      "inputs": [
        {
          "name": "_device",
          "type": "address"
        },
        {
          "name": "_transporter",
          "type": "address"
        }
      ],
      "name": "assignDeviceToTransporter",
      "outputs": [],
      "payable": false,
      "stateMutability": "nonpayable",
      "type": "function",
      "signature": "0xfeecf4c0"
    },
    {
      "constant": false,
      "inputs": [
        {
          "name": "_transporters",
          "type": "address[]"
        }
      ],
      "name": "addTransporter",
      "outputs": [],
      "payable": false,
      "stateMutability": "nonpayable",
      "type": "function",
      "signature": "0x1a3282d9"
    },
    {
      "constant": false,
      "inputs": [
        {
          "name": "_amount",
          "type": "uint256"
        },
        {
          "name": "_lat",
          "type": "string"
        },
        {
          "name": "_lon",
          "type": "string"
        },
        {
          "name": "_producer",
          "type": "address"
        }
      ],
      "name": "addCargo",
      "outputs": [],
      "payable": false,
      "stateMutability": "nonpayable",
      "type": "function",
      "signature": "0x2588335d"
    },
    {
      "constant": false,
      "inputs": [
        {
          "name": "_devices",
          "type": "address[]"
        }
      ],
      "name": "addTrip",
      "outputs": [],
      "payable": false,
      "stateMutability": "nonpayable",
      "type": "function",
      "signature": "0x01979bc3"
    },
    {
      "constant": false,
      "inputs": [
        {
          "name": "_humidity",
          "type": "string"
        },
        {
          "name": "_lat",
          "type": "string"
        },
        {
          "name": "_lon",
          "type": "string"
        }
      ],
      "name": "recordEvent",
      "outputs": [],
      "payable": false,
      "stateMutability": "nonpayable",
      "type": "function",
      "signature": "0x8bb97bc4"
    },
    {
      "constant": false,
      "inputs": [],
      "name": "finishTrip",
      "outputs": [],
      "payable": false,
      "stateMutability": "nonpayable",
      "type": "function",
      "signature": "0x7f7b79e1"
    },
    {
      "constant": false,
      "inputs": [
        {
          "name": "_producers",
          "type": "address[]"
        }
      ],
      "name": "addProducer",
      "outputs": [],
      "payable": false,
      "stateMutability": "nonpayable",
      "type": "function",
      "signature": "0xb75de630"
    },
    {
      "constant": false,
      "inputs": [],
      "name": "kill",
      "outputs": [],
      "payable": false,
      "stateMutability": "nonpayable",
      "type": "function",
      "signature": "0x41c0e1b5"
    }
  ],
  "bytecode": "0x608060405234801561001057600080fd5b50336000806101000a81548173ffffffffffffffffffffffffffffffffffffffff021916908373ffffffffffffffffffffffffffffffffffffffff1602179055506000809054906101000a900473ffffffffffffffffffffffffffffffffffffffff1673ffffffffffffffffffffffffffffffffffffffff16600073ffffffffffffffffffffffffffffffffffffffff167f8be0079c531659141344cd1fd0a4f28419497f9722a3daafe3b4186f6b6457e060405160405180910390a361260f806100dc6000396000f3fe6080604052600436106100c5576000357c0100000000000000000000000000000000000000000000000000000000900463ffffffff16806301979bc3146100ca5780631a3282d91461018f5780631b70f3f7146102545780632588335d1461031957806341c0e1b5146104a2578063715018a6146104b95780637f7b79e1146104d05780638bb97bc4146104e75780638da5cb5b146106dd5780638f32d59b14610734578063b75de63014610763578063f2fde38b14610828578063feecf4c014610879575b600080fd5b3480156100d657600080fd5b5061018d600480360360208110156100ed57600080fd5b810190808035906020019064010000000081111561010a57600080fd5b82018360208201111561011c57600080fd5b8035906020019184602083028401116401000000008311171561013e57600080fd5b919080806020026020016040519081016040528093929190818152602001838360200280828437600081840152601f19601f8201169050808301925050505050505091929192905050506108ea565b005b34801561019b57600080fd5b50610252600480360360208110156101b257600080fd5b81019080803590602001906401000000008111156101cf57600080fd5b8201836020820111156101e157600080fd5b8035906020019184602083028401116401000000008311171561020357600080fd5b919080806020026020016040519081016040528093929190818152602001838360200280828437600081840152601f19601f820116905080830192505050505050509192919290505050610c76565b005b34801561026057600080fd5b506103176004803603602081101561027757600080fd5b810190808035906020019064010000000081111561029457600080fd5b8201836020820111156102a657600080fd5b803590602001918460208302840111640100000000831117156102c857600080fd5b919080806020026020016040519081016040528093929190818152602001838360200280828437600081840152601f19601f820116905080830192505050505050509192919290505050610ecb565b005b34801561032557600080fd5b506104a06004803603608081101561033c57600080fd5b81019080803590602001909291908035906020019064010000000081111561036357600080fd5b82018360208201111561037557600080fd5b8035906020019184600183028401116401000000008311171561039757600080fd5b91908080601f016020809104026020016040519081016040528093929190818152602001838380828437600081840152601f19601f820116905080830192505050505050509192919290803590602001906401000000008111156103fa57600080fd5b82018360208201111561040c57600080fd5b8035906020019184600183028401116401000000008311171561042e57600080fd5b91908080601f016020809104026020016040519081016040528093929190818152602001838380828437600081840152601f19601f820116905080830192505050505050509192919290803573ffffffffffffffffffffffffffffffffffffffff16906020019092919050505061105a565b005b3480156104ae57600080fd5b506104b76113d1565b005b3480156104c557600080fd5b506104ce61146d565b005b3480156104dc57600080fd5b506104e56115a8565b005b3480156104f357600080fd5b506106db6004803603606081101561050a57600080fd5b810190808035906020019064010000000081111561052757600080fd5b82018360208201111561053957600080fd5b8035906020019184600183028401116401000000008311171561055b57600080fd5b91908080601f016020809104026020016040519081016040528093929190818152602001838380828437600081840152601f19601f820116905080830192505050505050509192919290803590602001906401000000008111156105be57600080fd5b8201836020820111156105d057600080fd5b803590602001918460018302840111640100000000831117156105f257600080fd5b91908080601f016020809104026020016040519081016040528093929190818152602001838380828437600081840152601f19601f8201169050808301925050505050505091929192908035906020019064010000000081111561065557600080fd5b82018360208201111561066757600080fd5b8035906020019184600183028401116401000000008311171561068957600080fd5b91908080601f016020809104026020016040519081016040528093929190818152602001838380828437600081840152601f19601f820116905080830192505050505050509192919290505050611796565b005b3480156106e957600080fd5b506106f2611bcc565b604051808273ffffffffffffffffffffffffffffffffffffffff1673ffffffffffffffffffffffffffffffffffffffff16815260200191505060405180910390f35b34801561074057600080fd5b50610749611bf5565b604051808215151515815260200191505060405180910390f35b34801561076f57600080fd5b506108266004803603602081101561078657600080fd5b81019080803590602001906401000000008111156107a357600080fd5b8201836020820111156107b557600080fd5b803590602001918460208302840111640100000000831117156107d757600080fd5b919080806020026020016040519081016040528093929190818152602001838360200280828437600081840152601f19601f820116905080830192505050505050509192919290505050611c4c565b005b34801561083457600080fd5b506108776004803603602081101561084b57600080fd5b81019080803573ffffffffffffffffffffffffffffffffffffffff169060200190929190505050611ddb565b005b34801561088557600080fd5b506108e86004803603604081101561089c57600080fd5b81019080803573ffffffffffffffffffffffffffffffffffffffff169060200190929190803573ffffffffffffffffffffffffffffffffffffffff169060200190929190505050611e63565b005b6108f2611fdb565b151561098c576040517f08c379a00000000000000000000000000000000000000000000000000000000081526004018080602001828103825260238152602001807f49742773206e6f7420612076616c6964207472616e73706f7274206163636f7581526020017f6e742e000000000000000000000000000000000000000000000000000000000081525060400191505060405180910390fd5b6000600760003373ffffffffffffffffffffffffffffffffffffffff1673ffffffffffffffffffffffffffffffffffffffff168152602001908152602001600020905060008160000154141515610a71576040517f08c379a00000000000000000000000000000000000000000000000000000000081526004018080602001828103825260228152602001807f546865207472616e73706f727465722068617320616e2061637469766520747281526020017f697000000000000000000000000000000000000000000000000000000000000081525060400191505060405180910390fd5b6000429050336005600083815260200190815260200160002060006101000a81548173ffffffffffffffffffffffffffffffffffffffff021916908373ffffffffffffffffffffffffffffffffffffffff16021790555082600660008381526020019081526020016000209080519060200190610aef92919061239a565b5060048190806001815401808255809150509060018203906000526020600020016000909192909190915055508082600001819055508160010181908060018154018082558091505090600182039060005260206000200160009091929091909150555060408051908101604052806000604051908082528060200260200182016040528015610b8e5781602001602082028038833980820191505090505b508152602001848152508260020160008381526020019081526020016000206000820151816001019080519060200190610bc9929190612424565b506020820151816002019080519060200190610be6929190612424565b509050503373ffffffffffffffffffffffffffffffffffffffff167ff17b49a5dea76ac40b9088fb9f4d7c8073259697bf89b38d066e1a86605ea8a3826040518080602001838152602001828103825260168152602001807f4e7565766f207669616a65207265676973747261646f000000000000000000008152506020019250505060405180910390a2505050565b610c7e611bf5565b1515610cf2576040517f08c379a00000000000000000000000000000000000000000000000000000000081526004018080602001828103825260208152602001807f4f776e61626c653a2063616c6c6572206973206e6f7420746865206f776e657281525060200191505060405180910390fd5b60008090505b8151811015610ec757610d2c8282815181101515610d1257fe5b906020019060200201516001611ff690919063ffffffff16565b1515610eba57610d5d8282815181101515610d4357fe5b90602001906020020151600161211990919063ffffffff16565b6040805190810160405280600081526020016000604051908082528060200260200182016040528015610d9f5781602001602082028038833980820191505090505b50815250600760008484815181101515610db557fe5b9060200190602002015173ffffffffffffffffffffffffffffffffffffffff1673ffffffffffffffffffffffffffffffffffffffff168152602001908152602001600020600082015181600001556020820151816001019080519060200190610e1f9291906124ae565b509050508181815181101515610e3157fe5b9060200190602002015173ffffffffffffffffffffffffffffffffffffffff167f4ccfd9e1c981d644344aa59ee6303b42dc4aed4139bd6a8eb2f98e29945881f360405180806020018281038252601c8152602001807f4e7565766f207472616e73706f727461646f7220616772656761646f0000000081525060200191505060405180910390a25b8080600101915050610cf8565b5050565b610ed3611bf5565b1515610f47576040517f08c379a00000000000000000000000000000000000000000000000000000000081526004018080602001828103825260208152602001807f4f776e61626c653a2063616c6c6572206973206e6f7420746865206f776e657281525060200191505060405180910390fd5b60008090505b815181101561105657610f818282815181101515610f6757fe5b906020019060200201516003611ff690919063ffffffff16565b151561104957610fb28282815181101515610f9857fe5b90602001906020020151600361211990919063ffffffff16565b8181815181101515610fc057fe5b9060200190602002015173ffffffffffffffffffffffffffffffffffffffff167f3c3bb545c42b454a4767ba58de13274f1075af683d882842741efa6d9d9fbf3660405180806020018281038252601a8152602001807f4e7565766f20646973706f73697469766f20616772656761646f00000000000081525060200191505060405180910390a25b8080600101915050610f4d565b5050565b611062611fdb565b15156110fc576040517f08c379a00000000000000000000000000000000000000000000000000000000081526004018080602001828103825260238152602001807f49742773206e6f7420612076616c6964207472616e73706f7274206163636f7581526020017f6e742e000000000000000000000000000000000000000000000000000000000081525060400191505060405180910390fd5b6000600760003373ffffffffffffffffffffffffffffffffffffffff1673ffffffffffffffffffffffffffffffffffffffff16815260200190815260200160002090506000816002016000836000015481526020019081526020016000209050806001018390806001815401808255809150509060018203906000526020600020016000909192909190916101000a81548173ffffffffffffffffffffffffffffffffffffffff021916908373ffffffffffffffffffffffffffffffffffffffff16021790555050606060405190810160405280878152602001868152602001858152508160000160008573ffffffffffffffffffffffffffffffffffffffff1673ffffffffffffffffffffffffffffffffffffffff1681526020019081526020016000206000820151816000015560208201518160010190805190602001906112479291906124fb565b5060408201518160020190805190602001906112649291906124fb565b509050503373ffffffffffffffffffffffffffffffffffffffff167f0dc3d7d642a8f2f1d04656ce6ad01c944ed9a7ff2fdf3944142966136a086e0b87878760405180806020018581526020018060200180602001848103845260168152602001807f4e75657661206361726761207265676973747261646100000000000000000000815250602001848103835286818151815260200191508051906020019080838360005b8381101561132557808201518184015260208101905061130a565b50505050905090810190601f1680156113525780820380516001836020036101000a031916815260200191505b50848103825285818151815260200191508051906020019080838360005b8381101561138b578082015181840152602081019050611370565b50505050905090810190601f1680156113b85780820380516001836020036101000a031916815260200191505b50965050505050505060405180910390a2505050505050565b6113d9611bf5565b151561144d576040517f08c379a00000000000000000000000000000000000000000000000000000000081526004018080602001828103825260208152602001807f4f776e61626c653a2063616c6c6572206973206e6f7420746865206f776e657281525060200191505060405180910390fd5b611455611bcc565b73ffffffffffffffffffffffffffffffffffffffff16ff5b611475611bf5565b15156114e9576040517f08c379a00000000000000000000000000000000000000000000000000000000081526004018080602001828103825260208152602001807f4f776e61626c653a2063616c6c6572206973206e6f7420746865206f776e657281525060200191505060405180910390fd5b600073ffffffffffffffffffffffffffffffffffffffff166000809054906101000a900473ffffffffffffffffffffffffffffffffffffffff1673ffffffffffffffffffffffffffffffffffffffff167f8be0079c531659141344cd1fd0a4f28419497f9722a3daafe3b4186f6b6457e060405160405180910390a360008060006101000a81548173ffffffffffffffffffffffffffffffffffffffff021916908373ffffffffffffffffffffffffffffffffffffffff160217905550565b6115b0611fdb565b151561164a576040517f08c379a00000000000000000000000000000000000000000000000000000000081526004018080602001828103825260238152602001807f49742773206e6f7420612076616c6964207472616e73706f7274206163636f7581526020017f6e742e000000000000000000000000000000000000000000000000000000000081525060400191505060405180910390fd5b6000600760003373ffffffffffffffffffffffffffffffffffffffff1673ffffffffffffffffffffffffffffffffffffffff1681526020019081526020016000209050600081600001541415151561170a576040517f08c379a000000000000000000000000000000000000000000000000000000000815260040180806020018281038252601b8152602001807f5468657265206973206e6f20616374697665207472697020796574000000000081525060200191505060405180910390fd5b600081600001819055503373ffffffffffffffffffffffffffffffffffffffff167fb132d28c3ce81b24e2b13689c3313c3935a4c92cefebd1c9087f1dc3a2b6212460405180806020018281038252601f8152602001807f43657272616e646f207669616a65206465207472616e73706f727461646f720081525060200191505060405180910390a250565b61179e6121f6565b1515611812576040517f08c379a00000000000000000000000000000000000000000000000000000000081526004018080602001828103825260208152602001807f49742773206e6f7420612076616c696420646576696365206163636f756e742e81525060200191505060405180910390fd5b600060076000600860003373ffffffffffffffffffffffffffffffffffffffff1673ffffffffffffffffffffffffffffffffffffffff16815260200190815260200160002060009054906101000a900473ffffffffffffffffffffffffffffffffffffffff1673ffffffffffffffffffffffffffffffffffffffff1673ffffffffffffffffffffffffffffffffffffffff168152602001908152602001600020905060008160000154141515611956576040517f08c379a00000000000000000000000000000000000000000000000000000000081526004018080602001828103825260228152602001807f546865207472616e73706f727465722068617320616e2061637469766520747281526020017f697000000000000000000000000000000000000000000000000000000000000081525060400191505060405180910390fd5b606060405190810160405280858152602001848152602001838152506009600083600001548152602001908152602001600020600042815260200190815260200160002060008201518160000190805190602001906119b69291906124fb565b5060208201518160010190805190602001906119d39291906124fb565b5060408201518160020190805190602001906119f09291906124fb565b509050503373ffffffffffffffffffffffffffffffffffffffff167f484eb4ced3e714683266a7c5f8c4aabd034b835bbe8ab00ae8f3bd1a51666948826000015486868660405180806020018681526020018060200180602001806020018581038552601d8152602001807f4e7565766f20726567697374726f20646520646973706f73697469766f000000815250602001858103845288818151815260200191508051906020019080838360005b83811015611aba578082015181840152602081019050611a9f565b50505050905090810190601f168015611ae75780820380516001836020036101000a031916815260200191505b50858103835287818151815260200191508051906020019080838360005b83811015611b20578082015181840152602081019050611b05565b50505050905090810190601f168015611b4d5780820380516001836020036101000a031916815260200191505b50858103825286818151815260200191508051906020019080838360005b83811015611b86578082015181840152602081019050611b6b565b50505050905090810190601f168015611bb35780820380516001836020036101000a031916815260200191505b509850505050505050505060405180910390a250505050565b60008060009054906101000a900473ffffffffffffffffffffffffffffffffffffffff16905090565b60008060009054906101000a900473ffffffffffffffffffffffffffffffffffffffff1673ffffffffffffffffffffffffffffffffffffffff163373ffffffffffffffffffffffffffffffffffffffff1614905090565b611c54611bf5565b1515611cc8576040517f08c379a00000000000000000000000000000000000000000000000000000000081526004018080602001828103825260208152602001807f4f776e61626c653a2063616c6c6572206973206e6f7420746865206f776e657281525060200191505060405180910390fd5b60008090505b8151811015611dd757611d028282815181101515611ce857fe5b906020019060200201516002611ff690919063ffffffff16565b1515611dca57611d338282815181101515611d1957fe5b90602001906020020151600261211990919063ffffffff16565b8181815181101515611d4157fe5b9060200190602002015173ffffffffffffffffffffffffffffffffffffffff167f36190ebd204efb27cc2e99e0c5fb90247d5bafc03993661869e759772f6bec6560405180806020018281038252601a8152602001807f4e7565766f2070726f647563746f72207265676973747261646f00000000000081525060200191505060405180910390a25b8080600101915050611cce565b5050565b611de3611bf5565b1515611e57576040517f08c379a00000000000000000000000000000000000000000000000000000000081526004018080602001828103825260208152602001807f4f776e61626c653a2063616c6c6572206973206e6f7420746865206f776e657281525060200191505060405180910390fd5b611e6081612211565b50565b611e6b611bf5565b1515611edf576040517f08c379a00000000000000000000000000000000000000000000000000000000081526004018080602001828103825260208152602001807f4f776e61626c653a2063616c6c6572206973206e6f7420746865206f776e657281525060200191505060405180910390fd5b80600860008473ffffffffffffffffffffffffffffffffffffffff1673ffffffffffffffffffffffffffffffffffffffff16815260200190815260200160002060006101000a81548173ffffffffffffffffffffffffffffffffffffffff021916908373ffffffffffffffffffffffffffffffffffffffff1602179055508073ffffffffffffffffffffffffffffffffffffffff167f7a323ae7d8a6412b1de1192812695f455f92625368916e7ea4fb984c66db943d83604051808273ffffffffffffffffffffffffffffffffffffffff1673ffffffffffffffffffffffffffffffffffffffff16815260200191505060405180910390a25050565b6000611ff1336001611ff690919063ffffffff16565b905090565b60008073ffffffffffffffffffffffffffffffffffffffff168273ffffffffffffffffffffffffffffffffffffffff16141515156120c2576040517f08c379a00000000000000000000000000000000000000000000000000000000081526004018080602001828103825260228152602001807f526f6c65733a206163636f756e7420697320746865207a65726f20616464726581526020017f737300000000000000000000000000000000000000000000000000000000000081525060400191505060405180910390fd5b8260000160008373ffffffffffffffffffffffffffffffffffffffff1673ffffffffffffffffffffffffffffffffffffffff16815260200190815260200160002060009054906101000a900460ff16905092915050565b6121238282611ff6565b151515612198576040517f08c379a000000000000000000000000000000000000000000000000000000000815260040180806020018281038252601f8152602001807f526f6c65733a206163636f756e7420616c72656164792068617320726f6c650081525060200191505060405180910390fd5b60018260000160008373ffffffffffffffffffffffffffffffffffffffff1673ffffffffffffffffffffffffffffffffffffffff16815260200190815260200160002060006101000a81548160ff0219169083151502179055505050565b600061220c336003611ff690919063ffffffff16565b905090565b600073ffffffffffffffffffffffffffffffffffffffff168173ffffffffffffffffffffffffffffffffffffffff16141515156122dc576040517f08c379a00000000000000000000000000000000000000000000000000000000081526004018080602001828103825260268152602001807f4f776e61626c653a206e6577206f776e657220697320746865207a65726f206181526020017f646472657373000000000000000000000000000000000000000000000000000081525060400191505060405180910390fd5b8073ffffffffffffffffffffffffffffffffffffffff166000809054906101000a900473ffffffffffffffffffffffffffffffffffffffff1673ffffffffffffffffffffffffffffffffffffffff167f8be0079c531659141344cd1fd0a4f28419497f9722a3daafe3b4186f6b6457e060405160405180910390a3806000806101000a81548173ffffffffffffffffffffffffffffffffffffffff021916908373ffffffffffffffffffffffffffffffffffffffff16021790555050565b828054828255906000526020600020908101928215612413579160200282015b828111156124125782518260006101000a81548173ffffffffffffffffffffffffffffffffffffffff021916908373ffffffffffffffffffffffffffffffffffffffff160217905550916020019190600101906123ba565b5b509050612420919061257b565b5090565b82805482825590600052602060002090810192821561249d579160200282015b8281111561249c5782518260006101000a81548173ffffffffffffffffffffffffffffffffffffffff021916908373ffffffffffffffffffffffffffffffffffffffff16021790555091602001919060010190612444565b5b5090506124aa919061257b565b5090565b8280548282559060005260206000209081019282156124ea579160200282015b828111156124e95782518255916020019190600101906124ce565b5b5090506124f791906125be565b5090565b828054600181600116156101000203166002900490600052602060002090601f016020900481019282601f1061253c57805160ff191683800117855561256a565b8280016001018555821561256a579182015b8281111561256957825182559160200191906001019061254e565b5b50905061257791906125be565b5090565b6125bb91905b808211156125b757600081816101000a81549073ffffffffffffffffffffffffffffffffffffffff021916905550600101612581565b5090565b90565b6125e091905b808211156125dc5760008160009055506001016125c4565b5090565b9056fea165627a7a723058204a526f1ac591e5748a3b60e1449a8ce393b04a5979631edc48de783e63c84ce10029",
  "source": "pragma solidity >=0.4.21 <0.6.0;\n\nimport 'openzeppelin-solidity/contracts/ownership/Ownable.sol';\nimport 'openzeppelin-solidity/contracts/access/Roles.sol';\n\ncontract Gretel is Ownable {\n  using Roles for Roles.Role;\n\n  Roles.Role private transporter;\n  Roles.Role private producer;\n  Roles.Role private devices;\n\n  uint[] private tripIds;\n  mapping(uint => address) private tripTransporter;\n  mapping(uint => address[]) private tripDevices;\n  mapping(address => Trips) private transporterTrips;\n  mapping(address => address) private deviceTransporter;\n  mapping(uint => mapping(uint => EventRecord)) private tripEventRecords;\n\n  event newCargo(string _name, uint _amount, string _lat, string _lon, address indexed _from);\n  event newTrip(string _name, uint _tripId, address indexed _from);\n  event newProducer(string _name, address indexed _address);\n  event newTransporter(string _name, address indexed _address);\n  event newDevice(string _name, address indexed _address);\n  event closeTrip(string _name, address indexed _address);\n  event deviceAssignedToTransporter(address indexed _transporter, address _device);\n  event newTripEventRecord(string _name, uint _tripId, address indexed _from, string _humidity, string _lat, string _lon);\n\n  struct Trips {\n    uint activeTrip;\n    uint[] trips;\n    mapping(uint => Cargo) cargos;\n  }\n\n  struct Cargo {\n    mapping(address => Item) items;\n    address[] itemIds;\n    address[] devices;\n  }\n\n  struct EventRecord {\n    string humidity;\n    string lat;\n    string lon;\n  }\n\n  struct Item {\n    uint amount;\n    string lat;\n    string lon;\n  }\n\n  constructor() public {}\n\n  modifier onlyTransport() {\n    require(isTransport(), \"It's not a valid transport account.\");\n    _;\n  }\n\n  modifier onlyDevice() {\n    require(isDevice(), \"It's not a valid device account.\");\n    _;\n  }\n\n  function isTransport() internal view returns (bool) {\n    return transporter.has(msg.sender);\n  }\n\n  function isDevice() internal view returns (bool) {\n    return devices.has(msg.sender);\n  }\n\n  function addDevice(address[] memory _devices) public onlyOwner {\n    for (uint i = 0; i < _devices.length; i++) {\n      if (!devices.has(_devices[i])) {\n        devices.add(_devices[i]);\n        emit newDevice(\"Nuevo dispositivo agregado\", _devices[i]);\n      }\n    }\n  }\n\n  function assignDeviceToTransporter(address _device, address _transporter) public onlyOwner {\n    deviceTransporter[_device] = _transporter;\n    emit deviceAssignedToTransporter(_transporter, _device);\n  }\n\n  function addTransporter(address[] memory _transporters) public onlyOwner {\n    for (uint i = 0; i < _transporters.length; i++) {\n      if (!transporter.has(_transporters[i])) {\n        transporter.add(_transporters[i]);\n        transporterTrips[_transporters[i]] = Trips({\n          activeTrip: 0,\n          trips: new uint[](0)\n        });\n        emit newTransporter(\"Nuevo transportador agregado\", _transporters[i]);\n      }\n    }\n  }\n\n  function addCargo(uint _amount, string memory _lat, string memory _lon, address _producer) public onlyTransport {\n    Trips storage tt = transporterTrips[msg.sender];\n    Cargo storage cc = tt.cargos[tt.activeTrip];\n    cc.itemIds.push(_producer);\n    cc.items[_producer] = Item({amount: _amount, lat: _lat, lon: _lon});\n    emit newCargo(\"Nueva carga registrada\", _amount, _lat, _lon, msg.sender);\n  }\n\n  function addTrip(address[] memory _devices) public onlyTransport {\n    Trips storage tt = transporterTrips[msg.sender];\n    require (tt.activeTrip == 0, \"The transporter has an active trip\");\n    uint tripId = now;\n    tripTransporter[tripId] = msg.sender;\n    tripDevices[tripId] = _devices;\n    tripIds.push(tripId);\n    tt.activeTrip = tripId;\n    tt.trips.push(tripId);\n    tt.cargos[tripId] = Cargo({itemIds: new address[](0), devices: _devices});\n    emit newTrip(\"Nuevo viaje registrado\", tripId, msg.sender);\n  }\n\n  function recordEvent(string memory _humidity, string memory _lat, string memory _lon) public onlyDevice {\n    Trips storage tt = transporterTrips[deviceTransporter[msg.sender]];\n    require (tt.activeTrip == 0, \"The transporter has an active trip\");\n    tripEventRecords[tt.activeTrip][now] = EventRecord({humidity: _humidity, lat: _lat, lon: _lon});\n    emit newTripEventRecord(\"Nuevo registro de dispositivo\", tt.activeTrip, msg.sender, _humidity, _lat, _lon);\n  }\n\n  function finishTrip() public onlyTransport {\n    Trips storage tt = transporterTrips[msg.sender];\n    require(tt.activeTrip != 0, \"There is no active trip yet\");\n    tt.activeTrip = 0;\n    emit closeTrip(\"Cerrando viaje de transportador\", msg.sender);\n  }\n\n  function addProducer(address[] memory _producers) public onlyOwner {\n    for(uint i = 0; i < _producers.length; i++) {\n      if(!producer.has(_producers[i])) {\n        producer.add(_producers[i]);\n        emit newProducer(\"Nuevo productor registrado\", _producers[i]);\n      }\n    }\n  }\n\n  function kill() public onlyOwner {\n    selfdestruct(address(int160(owner())));\n  }\n}\n",
  "sourcePath": "/home/mesi/Projects/University/TPI/contracts/contracts/Gretel.sol",
  "compiler": {
    "name": "solc",
    "version": "0.5.0+commit.1d4f565a.Emscripten.clang"
  },
  "schemaVersion": "3.0.5",
  "updatedAt": "2019-07-10T14:12:15.804Z",
  "devdoc": {
    "methods": {
      "isOwner()": {
        "details": "Returns true if the caller is the current owner."
      },
      "owner()": {
        "details": "Returns the address of the current owner."
      },
      "renounceOwnership()": {
        "details": "Leaves the contract without owner. It will not be possible to call `onlyOwner` functions anymore. Can only be called by the current owner.     * > Note: Renouncing ownership will leave the contract without an owner, thereby removing any functionality that is only available to the owner."
      },
      "transferOwnership(address)": {
        "details": "Transfers ownership of the contract to a new account (`newOwner`). Can only be called by the current owner."
      }
    }
  },
  "userdoc": {
    "methods": {}
  }
}