{
  "contractName": "Gretel",
  "abi": [
    {
      "constant": false,
      "inputs": [],
      "name": "renounceOwnership",
      "outputs": [],
      "payable": false,
      "stateMutability": "nonpayable",
      "type": "function",
      "signature": "0x715018a6"
    },
    {
      "constant": true,
      "inputs": [],
      "name": "owner",
      "outputs": [
        {
          "name": "",
          "type": "address"
        }
      ],
      "payable": false,
      "stateMutability": "view",
      "type": "function",
      "signature": "0x8da5cb5b"
    },
    {
      "constant": true,
      "inputs": [],
      "name": "isOwner",
      "outputs": [
        {
          "name": "",
          "type": "bool"
        }
      ],
      "payable": false,
      "stateMutability": "view",
      "type": "function",
      "signature": "0x8f32d59b"
    },
    {
      "constant": false,
      "inputs": [
        {
          "name": "newOwner",
          "type": "address"
        }
      ],
      "name": "transferOwnership",
      "outputs": [],
      "payable": false,
      "stateMutability": "nonpayable",
      "type": "function",
      "signature": "0xf2fde38b"
    },
    {
      "inputs": [],
      "payable": false,
      "stateMutability": "nonpayable",
      "type": "constructor",
      "signature": "constructor"
    },
    {
      "anonymous": false,
      "inputs": [
        {
          "indexed": false,
          "name": "_name",
          "type": "string"
        },
        {
          "indexed": false,
          "name": "_amount",
          "type": "uint256"
        },
        {
          "indexed": false,
          "name": "_lat",
          "type": "string"
        },
        {
          "indexed": false,
          "name": "_lon",
          "type": "string"
        },
        {
          "indexed": true,
          "name": "_from",
          "type": "address"
        }
      ],
      "name": "newCargo",
      "type": "event",
      "signature": "0x0dc3d7d642a8f2f1d04656ce6ad01c944ed9a7ff2fdf3944142966136a086e0b"
    },
    {
      "anonymous": false,
      "inputs": [
        {
          "indexed": false,
          "name": "_name",
          "type": "string"
        },
        {
          "indexed": false,
          "name": "_tripId",
          "type": "uint256"
        },
        {
          "indexed": true,
          "name": "_from",
          "type": "address"
        }
      ],
      "name": "newTrip",
      "type": "event",
      "signature": "0xf17b49a5dea76ac40b9088fb9f4d7c8073259697bf89b38d066e1a86605ea8a3"
    },
    {
      "anonymous": false,
      "inputs": [
        {
          "indexed": true,
          "name": "previousOwner",
          "type": "address"
        },
        {
          "indexed": true,
          "name": "newOwner",
          "type": "address"
        }
      ],
      "name": "OwnershipTransferred",
      "type": "event",
      "signature": "0x8be0079c531659141344cd1fd0a4f28419497f9722a3daafe3b4186f6b6457e0"
    },
    {
      "constant": false,
      "inputs": [
        {
          "name": "_transporters",
          "type": "address[]"
        }
      ],
      "name": "addTransporter",
      "outputs": [],
      "payable": false,
      "stateMutability": "nonpayable",
      "type": "function",
      "signature": "0x1a3282d9"
    },
    {
      "constant": false,
      "inputs": [
        {
          "name": "_amount",
          "type": "uint256"
        },
        {
          "name": "_lat",
          "type": "string"
        },
        {
          "name": "_lon",
          "type": "string"
        },
        {
          "name": "_producer",
          "type": "address"
        }
      ],
      "name": "addCargo",
      "outputs": [],
      "payable": false,
      "stateMutability": "nonpayable",
      "type": "function",
      "signature": "0x2588335d"
    },
    {
      "constant": false,
      "inputs": [],
      "name": "addTrip",
      "outputs": [],
      "payable": false,
      "stateMutability": "nonpayable",
      "type": "function",
      "signature": "0xd0f866b7"
    },
    {
      "constant": false,
      "inputs": [
        {
          "name": "_producers",
          "type": "address[]"
        }
      ],
      "name": "addProducer",
      "outputs": [],
      "payable": false,
      "stateMutability": "nonpayable",
      "type": "function",
      "signature": "0xb75de630"
    },
    {
      "constant": false,
      "inputs": [],
      "name": "kill",
      "outputs": [],
      "payable": false,
      "stateMutability": "nonpayable",
      "type": "function",
      "signature": "0x41c0e1b5"
    }
  ],
  "bytecode": "0x608060405234801561001057600080fd5b50336000806101000a81548173ffffffffffffffffffffffffffffffffffffffff021916908373ffffffffffffffffffffffffffffffffffffffff1602179055506000809054906101000a900473ffffffffffffffffffffffffffffffffffffffff1673ffffffffffffffffffffffffffffffffffffffff16600073ffffffffffffffffffffffffffffffffffffffff167f8be0079c531659141344cd1fd0a4f28419497f9722a3daafe3b4186f6b6457e060405160405180910390a3611659806100dc6000396000f3fe608060405260043610610099576000357c0100000000000000000000000000000000000000000000000000000000900463ffffffff1680631a3282d91461009e5780632588335d1461016357806341c0e1b5146102ec578063715018a6146103035780638da5cb5b1461031a5780638f32d59b14610371578063b75de630146103a0578063d0f866b714610465578063f2fde38b1461047c575b600080fd5b3480156100aa57600080fd5b50610161600480360360208110156100c157600080fd5b81019080803590602001906401000000008111156100de57600080fd5b8201836020820111156100f057600080fd5b8035906020019184602083028401116401000000008311171561011257600080fd5b919080806020026020016040519081016040528093929190818152602001838360200280828437600081840152601f19601f8201169050808301925050505050505091929192905050506104cd565b005b34801561016f57600080fd5b506102ea6004803603608081101561018657600080fd5b8101908080359060200190929190803590602001906401000000008111156101ad57600080fd5b8201836020820111156101bf57600080fd5b803590602001918460018302840111640100000000831117156101e157600080fd5b91908080601f016020809104026020016040519081016040528093929190818152602001838380828437600081840152601f19601f8201169050808301925050505050505091929192908035906020019064010000000081111561024457600080fd5b82018360208201111561025657600080fd5b8035906020019184600183028401116401000000008311171561027857600080fd5b91908080601f016020809104026020016040519081016040528093929190818152602001838380828437600081840152601f19601f820116905080830192505050505050509192919290803573ffffffffffffffffffffffffffffffffffffffff16906020019092919050505061068c565b005b3480156102f857600080fd5b50610301610a03565b005b34801561030f57600080fd5b50610318610a9f565b005b34801561032657600080fd5b5061032f610bda565b604051808273ffffffffffffffffffffffffffffffffffffffff1673ffffffffffffffffffffffffffffffffffffffff16815260200191505060405180910390f35b34801561037d57600080fd5b50610386610c03565b604051808215151515815260200191505060405180910390f35b3480156103ac57600080fd5b50610463600480360360208110156103c357600080fd5b81019080803590602001906401000000008111156103e057600080fd5b8201836020820111156103f257600080fd5b8035906020019184602083028401116401000000008311171561041457600080fd5b919080806020026020016040519081016040528093929190818152602001838360200280828437600081840152601f19601f820116905080830192505050505050509192919290505050610c5a565b005b34801561047157600080fd5b5061047a610d53565b005b34801561048857600080fd5b506104cb6004803603602081101561049f57600080fd5b81019080803573ffffffffffffffffffffffffffffffffffffffff169060200190929190505050611042565b005b6104d5610c03565b1515610549576040517f08c379a00000000000000000000000000000000000000000000000000000000081526004018080602001828103825260208152602001807f4f776e61626c653a2063616c6c6572206973206e6f7420746865206f776e657281525060200191505060405180910390fd5b60008090505b815181101561068857610583828281518110151561056957fe5b9060200190602002015160016110ca90919063ffffffff16565b151561067b576105b4828281518110151561059a57fe5b9060200190602002015160016111ed90919063ffffffff16565b60408051908101604052806000815260200160006040519080825280602002602001820160405280156105f65781602001602082028038833980820191505090505b5081525060056000848481518110151561060c57fe5b9060200190602002015173ffffffffffffffffffffffffffffffffffffffff1673ffffffffffffffffffffffffffffffffffffffff16815260200190815260200160002060008201518160000155602082015181600101908051906020019061067692919061146e565b509050505b808060010191505061054f565b5050565b6106946112ca565b151561072e576040517f08c379a00000000000000000000000000000000000000000000000000000000081526004018080602001828103825260238152602001807f49742773206e6f7420612076616c6964207472616e73706f7274206163636f7581526020017f6e742e000000000000000000000000000000000000000000000000000000000081525060400191505060405180910390fd5b6000600560003373ffffffffffffffffffffffffffffffffffffffff1673ffffffffffffffffffffffffffffffffffffffff16815260200190815260200160002090506000816002016000836000015481526020019081526020016000209050806001018390806001815401808255809150509060018203906000526020600020016000909192909190916101000a81548173ffffffffffffffffffffffffffffffffffffffff021916908373ffffffffffffffffffffffffffffffffffffffff16021790555050606060405190810160405280878152602001868152602001858152508160000160008573ffffffffffffffffffffffffffffffffffffffff1673ffffffffffffffffffffffffffffffffffffffff1681526020019081526020016000206000820151816000015560208201518160010190805190602001906108799291906114bb565b5060408201518160020190805190602001906108969291906114bb565b509050503373ffffffffffffffffffffffffffffffffffffffff167f0dc3d7d642a8f2f1d04656ce6ad01c944ed9a7ff2fdf3944142966136a086e0b87878760405180806020018581526020018060200180602001848103845260168152602001807f4e75657661206361726761207265676973747261646100000000000000000000815250602001848103835286818151815260200191508051906020019080838360005b8381101561095757808201518184015260208101905061093c565b50505050905090810190601f1680156109845780820380516001836020036101000a031916815260200191505b50848103825285818151815260200191508051906020019080838360005b838110156109bd5780820151818401526020810190506109a2565b50505050905090810190601f1680156109ea5780820380516001836020036101000a031916815260200191505b50965050505050505060405180910390a2505050505050565b610a0b610c03565b1515610a7f576040517f08c379a00000000000000000000000000000000000000000000000000000000081526004018080602001828103825260208152602001807f4f776e61626c653a2063616c6c6572206973206e6f7420746865206f776e657281525060200191505060405180910390fd5b610a87610bda565b73ffffffffffffffffffffffffffffffffffffffff16ff5b610aa7610c03565b1515610b1b576040517f08c379a00000000000000000000000000000000000000000000000000000000081526004018080602001828103825260208152602001807f4f776e61626c653a2063616c6c6572206973206e6f7420746865206f776e657281525060200191505060405180910390fd5b600073ffffffffffffffffffffffffffffffffffffffff166000809054906101000a900473ffffffffffffffffffffffffffffffffffffffff1673ffffffffffffffffffffffffffffffffffffffff167f8be0079c531659141344cd1fd0a4f28419497f9722a3daafe3b4186f6b6457e060405160405180910390a360008060006101000a81548173ffffffffffffffffffffffffffffffffffffffff021916908373ffffffffffffffffffffffffffffffffffffffff160217905550565b60008060009054906101000a900473ffffffffffffffffffffffffffffffffffffffff16905090565b60008060009054906101000a900473ffffffffffffffffffffffffffffffffffffffff1673ffffffffffffffffffffffffffffffffffffffff163373ffffffffffffffffffffffffffffffffffffffff1614905090565b610c62610c03565b1515610cd6576040517f08c379a00000000000000000000000000000000000000000000000000000000081526004018080602001828103825260208152602001807f4f776e61626c653a2063616c6c6572206973206e6f7420746865206f776e657281525060200191505060405180910390fd5b60008090505b8151811015610d4f57610d108282815181101515610cf657fe5b9060200190602002015160026110ca90919063ffffffff16565b1515610d4257610d418282815181101515610d2757fe5b9060200190602002015160026111ed90919063ffffffff16565b5b8080600101915050610cdc565b5050565b610d5b6112ca565b1515610df5576040517f08c379a00000000000000000000000000000000000000000000000000000000081526004018080602001828103825260238152602001807f49742773206e6f7420612076616c6964207472616e73706f7274206163636f7581526020017f6e742e000000000000000000000000000000000000000000000000000000000081525060400191505060405180910390fd5b6000600560003373ffffffffffffffffffffffffffffffffffffffff1673ffffffffffffffffffffffffffffffffffffffff168152602001908152602001600020905060008160000154141515610eda576040517f08c379a00000000000000000000000000000000000000000000000000000000081526004018080602001828103825260228152602001807f546865207472616e73706f727465722068617320616e2061637469766520747281526020017f697000000000000000000000000000000000000000000000000000000000000081525060400191505060405180910390fd5b60004290506003819080600181540180825580915050906001820390600052602060002001600090919290919091505550808260000181905550816001018190806001815401808255809150509060018203906000526020600020016000909192909190915055506020604051908101604052806000604051908082528060200260200182016040528015610f7e5781602001602082028038833980820191505090505b508152508260020160008381526020019081526020016000206000820151816001019080519060200190610fb392919061153b565b509050503373ffffffffffffffffffffffffffffffffffffffff167ff17b49a5dea76ac40b9088fb9f4d7c8073259697bf89b38d066e1a86605ea8a3826040518080602001838152602001828103825260168152602001807f4e7565766f207669616a65207265676973747261646f000000000000000000008152506020019250505060405180910390a25050565b61104a610c03565b15156110be576040517f08c379a00000000000000000000000000000000000000000000000000000000081526004018080602001828103825260208152602001807f4f776e61626c653a2063616c6c6572206973206e6f7420746865206f776e657281525060200191505060405180910390fd5b6110c7816112e5565b50565b60008073ffffffffffffffffffffffffffffffffffffffff168273ffffffffffffffffffffffffffffffffffffffff1614151515611196576040517f08c379a00000000000000000000000000000000000000000000000000000000081526004018080602001828103825260228152602001807f526f6c65733a206163636f756e7420697320746865207a65726f20616464726581526020017f737300000000000000000000000000000000000000000000000000000000000081525060400191505060405180910390fd5b8260000160008373ffffffffffffffffffffffffffffffffffffffff1673ffffffffffffffffffffffffffffffffffffffff16815260200190815260200160002060009054906101000a900460ff16905092915050565b6111f782826110ca565b15151561126c576040517f08c379a000000000000000000000000000000000000000000000000000000000815260040180806020018281038252601f8152602001807f526f6c65733a206163636f756e7420616c72656164792068617320726f6c650081525060200191505060405180910390fd5b60018260000160008373ffffffffffffffffffffffffffffffffffffffff1673ffffffffffffffffffffffffffffffffffffffff16815260200190815260200160002060006101000a81548160ff0219169083151502179055505050565b60006112e03360016110ca90919063ffffffff16565b905090565b600073ffffffffffffffffffffffffffffffffffffffff168173ffffffffffffffffffffffffffffffffffffffff16141515156113b0576040517f08c379a00000000000000000000000000000000000000000000000000000000081526004018080602001828103825260268152602001807f4f776e61626c653a206e6577206f776e657220697320746865207a65726f206181526020017f646472657373000000000000000000000000000000000000000000000000000081525060400191505060405180910390fd5b8073ffffffffffffffffffffffffffffffffffffffff166000809054906101000a900473ffffffffffffffffffffffffffffffffffffffff1673ffffffffffffffffffffffffffffffffffffffff167f8be0079c531659141344cd1fd0a4f28419497f9722a3daafe3b4186f6b6457e060405160405180910390a3806000806101000a81548173ffffffffffffffffffffffffffffffffffffffff021916908373ffffffffffffffffffffffffffffffffffffffff16021790555050565b8280548282559060005260206000209081019282156114aa579160200282015b828111156114a957825182559160200191906001019061148e565b5b5090506114b791906115c5565b5090565b828054600181600116156101000203166002900490600052602060002090601f016020900481019282601f106114fc57805160ff191683800117855561152a565b8280016001018555821561152a579182015b8281111561152957825182559160200191906001019061150e565b5b50905061153791906115c5565b5090565b8280548282559060005260206000209081019282156115b4579160200282015b828111156115b35782518260006101000a81548173ffffffffffffffffffffffffffffffffffffffff021916908373ffffffffffffffffffffffffffffffffffffffff1602179055509160200191906001019061155b565b5b5090506115c191906115ea565b5090565b6115e791905b808211156115e35760008160009055506001016115cb565b5090565b90565b61162a91905b8082111561162657600081816101000a81549073ffffffffffffffffffffffffffffffffffffffff0219169055506001016115f0565b5090565b9056fea165627a7a72305820b1923223ca3dd0a9f337c10e8f90d7ed1acad58f8fa79feda56ff07acbdc78820029",
  "source": "pragma solidity >=0.4.21 <0.6.0;\n\nimport 'openzeppelin-solidity/contracts/ownership/Ownable.sol';\nimport 'openzeppelin-solidity/contracts/access/Roles.sol';\n\ncontract Gretel is Ownable {\n  using Roles for Roles.Role;\n\n  Roles.Role private transporter;\n  Roles.Role private producer;\n\n  uint[] private tripIds;\n  mapping(uint => address) private tripTransporter;\n  mapping(address => Trips) transporterTrips;\n\n  event newCargo(string _name, uint _amount, string _lat, string _lon, address indexed _from);\n  event newTrip(string _name, uint _tripId, address indexed _from);\n\n  struct Trips {\n    uint activeTrip;\n    uint[] trips;\n    mapping(uint => Cargo) cargos;\n  }\n\n  struct Cargo {\n    mapping(address => Item) items;\n    address[] itemIds;\n  }\n\n  struct Item {\n    uint amount;\n    string lat;\n    string lon;\n  }\n\n  constructor() public {}\n\n  modifier onlyTransport() {\n    require(isTransport(), \"It's not a valid transport account.\");\n    _;\n  }\n\n  function isTransport() internal view returns (bool) {\n    return transporter.has(msg.sender);\n  }\n\n  function addTransporter(address[] memory _transporters) public onlyOwner {\n    for (uint i = 0; i < _transporters.length; i++) {\n      if (!transporter.has(_transporters[i])) {\n        transporter.add(_transporters[i]);\n        transporterTrips[_transporters[i]] = Trips({\n          activeTrip: 0,\n          trips: new uint[](0)\n        });\n      }\n    }\n  }\n\n  function addCargo(uint _amount, string memory _lat, string memory _lon, address _producer) public onlyTransport {\n    Trips storage tt = transporterTrips[msg.sender];\n    Cargo storage cc = tt.cargos[tt.activeTrip];\n    cc.itemIds.push(_producer);\n    cc.items[_producer] = Item({amount: _amount, lat: _lat, lon: _lon});\n    emit newCargo(\"Nueva carga registrada\", _amount, _lat, _lon, msg.sender);\n  }\n\n  function addTrip() public onlyTransport {\n    Trips storage tt = transporterTrips[msg.sender];\n    require (tt.activeTrip == 0, \"The transporter has an active trip\");\n    uint tripId = now;\n    tripIds.push(tripId);\n    tt.activeTrip = tripId;\n    tt.trips.push(tripId);\n    tt.cargos[tripId] = Cargo({itemIds: new address[](0)});\n    emit newTrip(\"Nuevo viaje registrado\", tripId, msg.sender);\n  }\n\n  function addProducer(address[] memory _producers) public onlyOwner {\n    for(uint i = 0; i < _producers.length; i++) {\n      if(!producer.has(_producers[i])) {\n        producer.add(_producers[i]);\n      }\n    }\n  }\n\n  function kill() public onlyOwner {\n    selfdestruct(address(int160(owner())));\n  }\n}\n",
  "sourcePath": "/home/mesi/Projects/University/TPI/contracts/contracts/Gretel.sol",
  "compiler": {
    "name": "solc",
    "version": "0.5.0+commit.1d4f565a.Emscripten.clang"
  },
  "schemaVersion": "3.0.5",
  "updatedAt": "2019-07-10T01:17:55.982Z",
  "devdoc": {
    "methods": {
      "isOwner()": {
        "details": "Returns true if the caller is the current owner."
      },
      "owner()": {
        "details": "Returns the address of the current owner."
      },
      "renounceOwnership()": {
        "details": "Leaves the contract without owner. It will not be possible to call `onlyOwner` functions anymore. Can only be called by the current owner.     * > Note: Renouncing ownership will leave the contract without an owner, thereby removing any functionality that is only available to the owner."
      },
      "transferOwnership(address)": {
        "details": "Transfers ownership of the contract to a new account (`newOwner`). Can only be called by the current owner."
      }
    }
  },
  "userdoc": {
    "methods": {}
  }
}