{
  "contractName": "Certificates",
  "abi": [
    {
      "constant": false,
      "inputs": [],
      "name": "renounceOwnership",
      "outputs": [],
      "payable": false,
      "stateMutability": "nonpayable",
      "type": "function"
    },
    {
      "constant": true,
      "inputs": [],
      "name": "owner",
      "outputs": [
        {
          "name": "",
          "type": "address"
        }
      ],
      "payable": false,
      "stateMutability": "view",
      "type": "function"
    },
    {
      "constant": true,
      "inputs": [],
      "name": "isOwner",
      "outputs": [
        {
          "name": "",
          "type": "bool"
        }
      ],
      "payable": false,
      "stateMutability": "view",
      "type": "function"
    },
    {
      "constant": false,
      "inputs": [
        {
          "name": "newOwner",
          "type": "address"
        }
      ],
      "name": "transferOwnership",
      "outputs": [],
      "payable": false,
      "stateMutability": "nonpayable",
      "type": "function"
    },
    {
      "anonymous": false,
      "inputs": [
        {
          "indexed": true,
          "name": "_studentId",
          "type": "bytes32"
        },
        {
          "indexed": false,
          "name": "_part1",
          "type": "bytes32"
        },
        {
          "indexed": false,
          "name": "_part2",
          "type": "bytes32"
        }
      ],
      "name": "studentCertified",
      "type": "event"
    },
    {
      "anonymous": false,
      "inputs": [
        {
          "indexed": true,
          "name": "previousOwner",
          "type": "address"
        },
        {
          "indexed": true,
          "name": "newOwner",
          "type": "address"
        }
      ],
      "name": "OwnershipTransferred",
      "type": "event"
    },
    {
      "constant": false,
      "inputs": [
        {
          "name": "_studentId",
          "type": "string"
        },
        {
          "name": "_studentName",
          "type": "string"
        },
        {
          "name": "_studentEmail",
          "type": "string"
        },
        {
          "name": "_courseId",
          "type": "string"
        },
        {
          "name": "_courseName",
          "type": "string"
        },
        {
          "name": "_courseIntensity",
          "type": "string"
        },
        {
          "name": "_courseStartDate",
          "type": "string"
        },
        {
          "name": "_courseFinishDate",
          "type": "string"
        },
        {
          "name": "_certificateHashPart1",
          "type": "string"
        },
        {
          "name": "_certificateHashPart2",
          "type": "string"
        },
        {
          "name": "_linkHashPart1",
          "type": "string"
        },
        {
          "name": "_linkHashPart2",
          "type": "string"
        }
      ],
      "name": "certify",
      "outputs": [],
      "payable": false,
      "stateMutability": "nonpayable",
      "type": "function"
    },
    {
      "constant": true,
      "inputs": [
        {
          "name": "_certificateHashPart1",
          "type": "string"
        },
        {
          "name": "_certificateHashPart2",
          "type": "string"
        }
      ],
      "name": "verifyByIPFS",
      "outputs": [
        {
          "name": "",
          "type": "string"
        },
        {
          "name": "",
          "type": "string"
        },
        {
          "name": "",
          "type": "string"
        },
        {
          "name": "",
          "type": "string"
        },
        {
          "name": "",
          "type": "string"
        },
        {
          "name": "",
          "type": "string"
        }
      ],
      "payable": false,
      "stateMutability": "view",
      "type": "function"
    },
    {
      "constant": true,
      "inputs": [
        {
          "name": "_linkHashPart1",
          "type": "string"
        },
        {
          "name": "_linkHashPart2",
          "type": "string"
        }
      ],
      "name": "verifyByLink",
      "outputs": [
        {
          "name": "",
          "type": "string"
        },
        {
          "name": "",
          "type": "string"
        },
        {
          "name": "",
          "type": "string"
        },
        {
          "name": "",
          "type": "string"
        },
        {
          "name": "",
          "type": "string"
        },
        {
          "name": "",
          "type": "string"
        }
      ],
      "payable": false,
      "stateMutability": "view",
      "type": "function"
    },
    {
      "constant": false,
      "inputs": [],
      "name": "kill",
      "outputs": [],
      "payable": false,
      "stateMutability": "nonpayable",
      "type": "function"
    }
  ],
  "bytecode": "0x6080604052336000806101000a81548173ffffffffffffffffffffffffffffffffffffffff021916908373ffffffffffffffffffffffffffffffffffffffff1602179055506000809054906101000a900473ffffffffffffffffffffffffffffffffffffffff1673ffffffffffffffffffffffffffffffffffffffff16600073ffffffffffffffffffffffffffffffffffffffff167f8be0079c531659141344cd1fd0a4f28419497f9722a3daafe3b4186f6b6457e060405160405180910390a3611ecf806100cf6000396000f3fe60806040526004361061008e576000357c0100000000000000000000000000000000000000000000000000000000900463ffffffff16806341c0e1b5146100935780634dadf954146100aa578063715018a6146107f05780638da5cb5b146108075780638f32d59b1461085e578063d183fc1b1461088d578063eae64c5614610c81578063f2fde38b14611075575b600080fd5b34801561009f57600080fd5b506100a86110c6565b005b3480156100b657600080fd5b506107ee60048036036101808110156100ce57600080fd5b81019080803590602001906401000000008111156100eb57600080fd5b8201836020820111156100fd57600080fd5b8035906020019184600183028401116401000000008311171561011f57600080fd5b91908080601f016020809104026020016040519081016040528093929190818152602001838380828437600081840152601f19601f8201169050808301925050505050505091929192908035906020019064010000000081111561018257600080fd5b82018360208201111561019457600080fd5b803590602001918460018302840111640100000000831117156101b657600080fd5b91908080601f016020809104026020016040519081016040528093929190818152602001838380828437600081840152601f19601f8201169050808301925050505050505091929192908035906020019064010000000081111561021957600080fd5b82018360208201111561022b57600080fd5b8035906020019184600183028401116401000000008311171561024d57600080fd5b91908080601f016020809104026020016040519081016040528093929190818152602001838380828437600081840152601f19601f820116905080830192505050505050509192919290803590602001906401000000008111156102b057600080fd5b8201836020820111156102c257600080fd5b803590602001918460018302840111640100000000831117156102e457600080fd5b91908080601f016020809104026020016040519081016040528093929190818152602001838380828437600081840152601f19601f8201169050808301925050505050505091929192908035906020019064010000000081111561034757600080fd5b82018360208201111561035957600080fd5b8035906020019184600183028401116401000000008311171561037b57600080fd5b91908080601f016020809104026020016040519081016040528093929190818152602001838380828437600081840152601f19601f820116905080830192505050505050509192919290803590602001906401000000008111156103de57600080fd5b8201836020820111156103f057600080fd5b8035906020019184600183028401116401000000008311171561041257600080fd5b91908080601f016020809104026020016040519081016040528093929190818152602001838380828437600081840152601f19601f8201169050808301925050505050505091929192908035906020019064010000000081111561047557600080fd5b82018360208201111561048757600080fd5b803590602001918460018302840111640100000000831117156104a957600080fd5b91908080601f016020809104026020016040519081016040528093929190818152602001838380828437600081840152601f19601f8201169050808301925050505050505091929192908035906020019064010000000081111561050c57600080fd5b82018360208201111561051e57600080fd5b8035906020019184600183028401116401000000008311171561054057600080fd5b91908080601f016020809104026020016040519081016040528093929190818152602001838380828437600081840152601f19601f820116905080830192505050505050509192919290803590602001906401000000008111156105a357600080fd5b8201836020820111156105b557600080fd5b803590602001918460018302840111640100000000831117156105d757600080fd5b91908080601f016020809104026020016040519081016040528093929190818152602001838380828437600081840152601f19601f8201169050808301925050505050505091929192908035906020019064010000000081111561063a57600080fd5b82018360208201111561064c57600080fd5b8035906020019184600183028401116401000000008311171561066e57600080fd5b91908080601f016020809104026020016040519081016040528093929190818152602001838380828437600081840152601f19601f820116905080830192505050505050509192919290803590602001906401000000008111156106d157600080fd5b8201836020820111156106e357600080fd5b8035906020019184600183028401116401000000008311171561070557600080fd5b91908080601f016020809104026020016040519081016040528093929190818152602001838380828437600081840152601f19601f8201169050808301925050505050505091929192908035906020019064010000000081111561076857600080fd5b82018360208201111561077a57600080fd5b8035906020019184600183028401116401000000008311171561079c57600080fd5b91908080601f016020809104026020016040519081016040528093929190818152602001838380828437600081840152601f19601f8201169050808301925050505050505091929192905050506110f9565b005b3480156107fc57600080fd5b506108056112d4565b005b34801561081357600080fd5b5061081c6113a6565b604051808273ffffffffffffffffffffffffffffffffffffffff1673ffffffffffffffffffffffffffffffffffffffff16815260200191505060405180910390f35b34801561086a57600080fd5b506108736113cf565b604051808215151515815260200191505060405180910390f35b34801561089957600080fd5b506109ea600480360360408110156108b057600080fd5b81019080803590602001906401000000008111156108cd57600080fd5b8201836020820111156108df57600080fd5b8035906020019184600183028401116401000000008311171561090157600080fd5b91908080601f016020809104026020016040519081016040528093929190818152602001838380828437600081840152601f19601f8201169050808301925050505050505091929192908035906020019064010000000081111561096457600080fd5b82018360208201111561097657600080fd5b8035906020019184600183028401116401000000008311171561099857600080fd5b91908080601f016020809104026020016040519081016040528093929190818152602001838380828437600081840152601f19601f820116905080830192505050505050509192919290505050611426565b6040518080602001806020018060200180602001806020018060200187810387528d818151815260200191508051906020019080838360005b83811015610a3e578082015181840152602081019050610a23565b50505050905090810190601f168015610a6b5780820380516001836020036101000a031916815260200191505b5087810386528c818151815260200191508051906020019080838360005b83811015610aa4578082015181840152602081019050610a89565b50505050905090810190601f168015610ad15780820380516001836020036101000a031916815260200191505b5087810385528b818151815260200191508051906020019080838360005b83811015610b0a578082015181840152602081019050610aef565b50505050905090810190601f168015610b375780820380516001836020036101000a031916815260200191505b5087810384528a818151815260200191508051906020019080838360005b83811015610b70578082015181840152602081019050610b55565b50505050905090810190601f168015610b9d5780820380516001836020036101000a031916815260200191505b50878103835289818151815260200191508051906020019080838360005b83811015610bd6578082015181840152602081019050610bbb565b50505050905090810190601f168015610c035780820380516001836020036101000a031916815260200191505b50878103825288818151815260200191508051906020019080838360005b83811015610c3c578082015181840152602081019050610c21565b50505050905090810190601f168015610c695780820380516001836020036101000a031916815260200191505b509c5050505050505050505050505060405180910390f35b348015610c8d57600080fd5b50610dde60048036036040811015610ca457600080fd5b8101908080359060200190640100000000811115610cc157600080fd5b820183602082011115610cd357600080fd5b80359060200191846001830284011164010000000083111715610cf557600080fd5b91908080601f016020809104026020016040519081016040528093929190818152602001838380828437600081840152601f19601f82011690508083019250505050505050919291929080359060200190640100000000811115610d5857600080fd5b820183602082011115610d6a57600080fd5b80359060200191846001830284011164010000000083111715610d8c57600080fd5b91908080601f016020809104026020016040519081016040528093929190818152602001838380828437600081840152601f19601f82011690508083019250505050505050919291929050505061158e565b6040518080602001806020018060200180602001806020018060200187810387528d818151815260200191508051906020019080838360005b83811015610e32578082015181840152602081019050610e17565b50505050905090810190601f168015610e5f5780820380516001836020036101000a031916815260200191505b5087810386528c818151815260200191508051906020019080838360005b83811015610e98578082015181840152602081019050610e7d565b50505050905090810190601f168015610ec55780820380516001836020036101000a031916815260200191505b5087810385528b818151815260200191508051906020019080838360005b83811015610efe578082015181840152602081019050610ee3565b50505050905090810190601f168015610f2b5780820380516001836020036101000a031916815260200191505b5087810384528a818151815260200191508051906020019080838360005b83811015610f64578082015181840152602081019050610f49565b50505050905090810190601f168015610f915780820380516001836020036101000a031916815260200191505b50878103835289818151815260200191508051906020019080838360005b83811015610fca578082015181840152602081019050610faf565b50505050905090810190601f168015610ff75780820380516001836020036101000a031916815260200191505b50878103825288818151815260200191508051906020019080838360005b83811015611030578082015181840152602081019050611015565b50505050905090810190601f16801561105d5780820380516001836020036101000a031916815260200191505b509c5050505050505050505050505060405180910390f35b34801561108157600080fd5b506110c46004803603602081101561109857600080fd5b81019080803573ffffffffffffffffffffffffffffffffffffffff169060200190929190505050611b45565b005b6110ce6113cf565b15156110d957600080fd5b6110e16113a6565b73ffffffffffffffffffffffffffffffffffffffff16ff5b6111016113cf565b151561110c57600080fd5b600061111785611b64565b9050600061112485611b64565b9050610100604051908101604052808f81526020018e81526020018d81526020018c81526020018b81526020018a81526020018981526020018881525060016000848152602001908152602001600020600083815260200190815260200160002060008201518160000190805190602001906111a1929190611cca565b5060208201518160010190805190602001906111be929190611cca565b5060408201518160020190805190602001906111db929190611cca565b5060608201518160030190805190602001906111f8929190611cca565b506080820151816004019080519060200190611215929190611cca565b5060a0820151816005019080519060200190611232929190611cca565b5060c082015181600601908051906020019061124f929190611cca565b5060e082015181600701908051906020019061126c929190611cca565b509050506112798e611b64565b7f1501da0696afe9d1d5c68258b8b176cffa442faf39bc48383e907026687d57798383604051808381526020018281526020019250505060405180910390a26112c484848888611b72565b5050505050505050505050505050565b6112dc6113cf565b15156112e757600080fd5b600073ffffffffffffffffffffffffffffffffffffffff166000809054906101000a900473ffffffffffffffffffffffffffffffffffffffff1673ffffffffffffffffffffffffffffffffffffffff167f8be0079c531659141344cd1fd0a4f28419497f9722a3daafe3b4186f6b6457e060405160405180910390a360008060006101000a81548173ffffffffffffffffffffffffffffffffffffffff021916908373ffffffffffffffffffffffffffffffffffffffff160217905550565b60008060009054906101000a900473ffffffffffffffffffffffffffffffffffffffff16905090565b60008060009054906101000a900473ffffffffffffffffffffffffffffffffffffffff1673ffffffffffffffffffffffffffffffffffffffff163373ffffffffffffffffffffffffffffffffffffffff1614905090565b606080606080606080600061143a89611b64565b9050600061144789611b64565b9050611451611d4a565b600260008481526020019081526020016000206000838152602001908152602001600020600280602002604051908101604052809291906000905b8282101561153f578382018054600181600116156101000203166002900480601f01602080910402602001604051908101604052809291908181526020018280546001816001161561010002031660029004801561152b5780601f106115005761010080835404028352916020019161152b565b820191906000526020600020905b81548152906001019060200180831161150e57829003601f168201915b50505050508152602001906001019061148c565b50505050905061157581600060028110151561155757fe5b602002015182600160028110151561156b57fe5b602002015161158e565b9850985098509850985098505050509295509295509295565b60608060608060608060006115a289611b64565b905060006115af89611b64565b90506115b9611d71565b6001600084815260200190815260200160002060008381526020019081526020016000206101006040519081016040529081600082018054600181600116156101000203166002900480601f0160208091040260200160405190810160405280929190818152602001828054600181600116156101000203166002900480156116835780601f1061165857610100808354040283529160200191611683565b820191906000526020600020905b81548152906001019060200180831161166657829003601f168201915b50505050508152602001600182018054600181600116156101000203166002900480601f0160208091040260200160405190810160405280929190818152602001828054600181600116156101000203166002900480156117255780601f106116fa57610100808354040283529160200191611725565b820191906000526020600020905b81548152906001019060200180831161170857829003601f168201915b50505050508152602001600282018054600181600116156101000203166002900480601f0160208091040260200160405190810160405280929190818152602001828054600181600116156101000203166002900480156117c75780601f1061179c576101008083540402835291602001916117c7565b820191906000526020600020905b8154815290600101906020018083116117aa57829003601f168201915b50505050508152602001600382018054600181600116156101000203166002900480601f0160208091040260200160405190810160405280929190818152602001828054600181600116156101000203166002900480156118695780601f1061183e57610100808354040283529160200191611869565b820191906000526020600020905b81548152906001019060200180831161184c57829003601f168201915b50505050508152602001600482018054600181600116156101000203166002900480601f01602080910402602001604051908101604052809291908181526020018280546001816001161561010002031660029004801561190b5780601f106118e05761010080835404028352916020019161190b565b820191906000526020600020905b8154815290600101906020018083116118ee57829003601f168201915b50505050508152602001600582018054600181600116156101000203166002900480601f0160208091040260200160405190810160405280929190818152602001828054600181600116156101000203166002900480156119ad5780601f10611982576101008083540402835291602001916119ad565b820191906000526020600020905b81548152906001019060200180831161199057829003601f168201915b50505050508152602001600682018054600181600116156101000203166002900480601f016020809104026020016040519081016040528092919081815260200182805460018160011615610100020316600290048015611a4f5780601f10611a2457610100808354040283529160200191611a4f565b820191906000526020600020905b815481529060010190602001808311611a3257829003601f168201915b50505050508152602001600782018054600181600116156101000203166002900480601f016020809104026020016040519081016040528092919081815260200182805460018160011615610100020316600290048015611af15780601f10611ac657610100808354040283529160200191611af1565b820191906000526020600020905b815481529060010190602001808311611ad457829003601f168201915b50505050508152505090508060000151816020015182608001518360a001518460c001518560e001518595508494508393508292508191508090509850985098509850985098505050509295509295509295565b611b4d6113cf565b1515611b5857600080fd5b611b6181611bd0565b50565b600060208201519050919050565b60408051908101604052808381526020018281525060026000611b9487611b64565b81526020019081526020016000206000611bad86611b64565b8152602001908152602001600020906002611bc9929190611db7565b5050505050565b600073ffffffffffffffffffffffffffffffffffffffff168173ffffffffffffffffffffffffffffffffffffffff1614151515611c0c57600080fd5b8073ffffffffffffffffffffffffffffffffffffffff166000809054906101000a900473ffffffffffffffffffffffffffffffffffffffff1673ffffffffffffffffffffffffffffffffffffffff167f8be0079c531659141344cd1fd0a4f28419497f9722a3daafe3b4186f6b6457e060405160405180910390a3806000806101000a81548173ffffffffffffffffffffffffffffffffffffffff021916908373ffffffffffffffffffffffffffffffffffffffff16021790555050565b828054600181600116156101000203166002900490600052602060002090601f016020900481019282601f10611d0b57805160ff1916838001178555611d39565b82800160010185558215611d39579182015b82811115611d38578251825591602001919060010190611d1d565b5b509050611d469190611e0a565b5090565b60408051908101604052806002905b6060815260200190600190039081611d595790505090565b6101006040519081016040528060608152602001606081526020016060815260200160608152602001606081526020016060815260200160608152602001606081525090565b8260028101928215611df9579160200282015b82811115611df8578251829080519060200190611de8929190611cca565b5091602001919060010190611dca565b5b509050611e069190611e2f565b5090565b611e2c91905b80821115611e28576000816000905550600101611e10565b5090565b90565b611e5891905b80821115611e545760008181611e4b9190611e5b565b50600101611e35565b5090565b90565b50805460018160011615610100020316600290046000825580601f10611e815750611ea0565b601f016020900490600052602060002090810190611e9f9190611e0a565b5b5056fea165627a7a72305820420850955b8328867d9654fb6a8b0dccdd1753b6a3d22cda928a8c6a1c6f16950029",
  "source": "pragma solidity >=0.4.23 <0.6.0;\n\nimport 'openzeppelin-solidity/contracts/ownership/Ownable.sol';\nimport './StringUtils.sol';\n\ncontract Certificates is Ownable {\n  using StringUtils for string;\n\n  mapping(bytes32 => mapping(bytes32 => Student)) certificates;\n  mapping(bytes32 => mapping(bytes32 => string[2])) hashes;\n\n  struct Student {\n    string studentId;\n    string studentName;\n    string studentEmail;\n    string courseId;\n    string courseName;\n    string courseIntensity;\n    string courseStartDate;\n    string courseFinishDate;\n  }\n\n  event studentCertified(\n    bytes32 indexed _studentId,\n    bytes32 _part1,\n    bytes32 _part2\n  );\n\n  function certify(\n    string memory _studentId,\n    string memory _studentName,\n    string memory _studentEmail,\n    string memory _courseId,\n    string memory _courseName,\n    string memory _courseIntensity,\n    string memory _courseStartDate,\n    string memory _courseFinishDate,\n    string memory _certificateHashPart1,\n    string memory _certificateHashPart2,\n    string memory _linkHashPart1,\n    string memory _linkHashPart2\n  ) public onlyOwner {\n    bytes32 part1 = _certificateHashPart1.stringToBytes32();\n    bytes32 part2 = _certificateHashPart2.stringToBytes32();\n    certificates[part1][part2] = Student({\n      studentId : _studentId,\n      studentName : _studentName,\n      studentEmail : _studentEmail,\n      courseId : _courseId,\n      courseName : _courseName,\n      courseIntensity : _courseIntensity,\n      courseStartDate : _courseStartDate,\n      courseFinishDate : _courseFinishDate\n      });\n    emit studentCertified(_studentId.stringToBytes32(), part1, part2);\n    setHashRelationship(_linkHashPart1, _linkHashPart2, _certificateHashPart1, _certificateHashPart2);\n  }\n\n  function setHashRelationship(\n    string memory _linkHashPart1,\n    string memory _linkHashPart2,\n    string memory _certificateHashPart1,\n    string memory _certificateHashPart2\n  ) private {\n    hashes[_linkHashPart1.stringToBytes32()][_linkHashPart2.stringToBytes32()] = [_certificateHashPart1, _certificateHashPart2];\n  }\n\n  function verifyByIPFS(\n    string memory _certificateHashPart1,\n    string memory _certificateHashPart2\n  ) public view returns (string memory, string memory, string memory, string memory, string memory, string memory) {\n    bytes32 part1 = _certificateHashPart1.stringToBytes32();\n    bytes32 part2 = _certificateHashPart2.stringToBytes32();\n    Student memory student = certificates[part1][part2];\n    return (\n    student.studentId,\n    student.studentName,\n    student.courseName,\n    student.courseIntensity,\n    student.courseStartDate,\n    student.courseFinishDate\n    );\n  }\n\n  function verifyByLink(\n    string memory _linkHashPart1,\n    string memory _linkHashPart2\n  ) public view returns (string memory, string memory, string memory, string memory, string memory, string memory) {\n    bytes32 part1 = _linkHashPart1.stringToBytes32();\n    bytes32 part2 = _linkHashPart2.stringToBytes32();\n    string[2] memory IPFSHashes = hashes[part1][part2];\n    return verifyByIPFS(IPFSHashes[0], IPFSHashes[1]);\n  }\n\n  function kill() public onlyOwner {\n    selfdestruct(address( int160( owner() ) ));\n  }\n}\n",
  "sourcePath": "/home/crow/certificates/contracts/contracts/Certificates.sol",
  "compiler": {
    "name": "solc",
    "version": "0.5.0+commit.1d4f565a.Emscripten.clang"
  },
  "schemaVersion": "3.0.3",
  "updatedAt": "2019-03-13T18:00:34.114Z",
  "devdoc": {
    "methods": {
      "isOwner()": {
        "return": "true if `msg.sender` is the owner of the contract."
      },
      "owner()": {
        "return": "the address of the owner."
      },
      "renounceOwnership()": {
        "details": "Allows the current owner to relinquish control of the contract."
      },
      "transferOwnership(address)": {
        "details": "Allows the current owner to transfer control of the contract to a newOwner.",
        "params": {
          "newOwner": "The address to transfer ownership to."
        }
      }
    }
  },
  "userdoc": {
    "methods": {
      "renounceOwnership()": {
        "notice": "Renouncing to ownership will leave the contract without an owner. It will not be possible to call the functions with the `onlyOwner` modifier anymore."
      }
    }
  }
}